:100000000C947E000C94A6000C94A6000C94A60000
:100010000C94A6000C94A6000C94A6000C940E065A
:100020000C94A6000C94A6000C94A6000C94A600B8
:100030000C94A6000C94A6000C94A6000C94A600A8
:100040000C943D080C94A6000C94AE040C94880407
:100050000C94A6000C94A6000C94A6000C94A60088
:100060000C94E0040C94A600630B660B690B6C0BFC
:100070006F0B720B750B436865636B20666F7220A4
:100080007365747570005479706520475320746FE0
:1000900020656E7465722073657475703A004C65E6
:1000A0007473207374617274000000000800020110
:1000B0000000030407000000000000000000000032
:1000C00000250028002B0000000000240027002A43
:1000D00000040404040404040402020202020203F1
:1000E00003030303030102040810204080010204FB
:1000F00008102001020408102000B30B11241FBEB9
:10010000CFEFD8E0DEBFCDBF23E0ACEDB1E001C062
:100110001D92AB35B207E1F711E0A0E0B1E0EEE4EB
:10012000F8E102C005900D92AC3DB107D9F710E09F
:10013000CEE7D0E004C02197FE010E941A0CCD3713
:10014000D107C9F70E9487080C94250C0C94000075
:10015000CF92DF92EF92FF920F931F93CF93DF9393
:100160006C017A018B01C0E0D0E0CE15DF0589F08B
:10017000D8016D918D01D601ED91FC910190F08136
:10018000E02DC6010995892B11F47E0102C021964C
:10019000ECCFC701DF91CF911F910F91FF90EF90AE
:1001A000DF90CF900895FC01538D448D252F30E0D2
:1001B000842F90E0821B930B541710F0CF96089574
:1001C00001970895FC01918D828D981761F0828DC1
:1001D000DF01A80FB11D5D968C91928D9F5F9F737B
:1001E000928F90E008958FEF9FEF0895FC01918D1D
:1001F000828D981731F0828DE80FF11D858D90E08A
:1002000008958FEF9FEF0895FC01918D228D892F26
:1002100090E0805C9F4F821B91098F73992708950E
:1002200089EA92E00E94040121E0892B09F420E090
:10023000822F0895FC01848DDF01A80FB11DA35A00
:10024000BF4F2C91848D90E001968F739927848FF6
:10025000A689B7892C93A089B1898C9180648C93ED
:10026000938D848D981306C00288F389E02D8081D8
:100270008F7D80830895EF92FF920F931F93CF930A
:10028000DF93EC0181E0888F9B8D8C8D981305C0E6
:10029000E889F989808185FD24C0F62E0B8D10E058
:1002A0000F5F1F4F0F731127E02E8C8DE8120CC0CB
:1002B0000FB607FCFACFE889F989808185FFF5CF71
:1002C000CE010E941A01F1CF8B8DFE01E80FF11DC6
:1002D000E35AFF4FF0820B8FEA89FB8980818062AD
:1002E00007C0EE89FF896083E889F989808180648D
:1002F000808381E090E0DF91CF911F910F91FF907B
:10030000EF900895CF93DF93EC01888D8823C9F097
:10031000EA89FB89808185FD05C0A889B9898C910E
:1003200086FD0FC00FB607FCF5CF808185FFF2CFA9
:10033000A889B9898C9185FFEDCFCE010E941A0161
:10034000E7CFDF91CF91089580E090E0892B29F0ED
:100350000E94100181110C94000008950895E0910D
:100360004F0280914E02E81730F4F0E0E25DFD4F5D
:10037000808190E008958FEF9FEF089590914F0254
:1003800080914E02981750F4E92FF0E0E25DFD4FA6
:10039000208130E09F5F90934F0202C02FEF3FEF2C
:1003A000C901089580914E0290E020914F02821B76
:1003B00091090895089580E090E0089585ED809377
:1003C000BC008091BC0084FDFCCF10928402089593
:1003D00040910902262F30E0240F311D21323105D2
:1003E000DCF4209184022430C9F4FC0180E090E028
:1003F000861758F4309109022191DC01A951BE4FB2
:10040000A30FB11D2C930196F3CF80910902680FC1
:100410006093090280E0089581E0089582E00895E4
:10042000CF92DF92EF92FF920F931F93CF93DF93C0
:100430007C01262F972F8A0180918502882391F0D5
:10044000C62FD72F6E01C40ED51ECC15DD0571F059
:100450006991D701ED91FC910190F081E02DC701E8
:100460000995F3CF642F822F0E94E801C801DF9124
:10047000CF911F910F91FF90EF90DF90CF90089553
:10048000CF93DF931F92CDB7DEB7698320918502AA
:100490002223D1F02091A802203240F021E030E068
:1004A000FC013383228380E090E015C080918602B6
:1004B000E82FF0E0E957FD4F998190838F5F80939B
:1004C00086028093A80205C061E0CE0101960E94D9
:1004D000E80181E090E00F90DF91CF910895CF93F4
:1004E000DF93CAE0D0E089EA92E00E940401181686
:1004F00019062CF489EA92E00E94E200F4CF2197D9
:1005000091F7DF91CF910895FF920F931F93CF93AF
:10051000DF930E946F021092DF0100E010E0F12CE7
:10052000D0E0C0E0DD3069F189EA92E00E94040188
:1005300018161906BCF789EA92E00E94E200D82F4B
:1005400080ED8D0F8A3098F4F801E152FE4FD08390
:100550000F5F1F4F6D2F89EA92E00E943B01CC0F85
:100560008C2F880F880FC80FC053CD0FDBCFDD3223
:10057000C9F66DE289EA92E00E943B01FF24F39400
:10058000D3CFF801E152FE4F1082F110C1950E94C5
:100590006F028C2FDF91CF911F910F91FF900895E3
:1005A000CF93DF93D82FC62F617089E00E94AB07ED
:1005B000C1FB662760F986E00E94AB07C2FB662795
:1005C00060F987E00E94AB07C3FB662760F988E00B
:1005D0000E94AB07ED2FF0E0E75FFE4FD081C1E056
:1005E000D1FB662760F96C278AE00E94AB07D2FB3B
:1005F000662760F96C278BE00E94AB07D3FB662768
:1006000060F96C278CE00E94AB07D4FB662760F989
:100610006C278DE00E94AB0780910901882369F067
:1006200061E084E00E94AB07C09103016C2F83E07E
:100630000E94AB076C2F85E002C060E084E0DF9190
:10064000CF910C94AB070E94200CCF9381E0809354
:10065000850288E68093A702109286021092A80273
:1006600060E086E493E00E94400280915102CAE07B
:100670006C2F0E94EC0B692F20E1829F600D1124EA
:1006800086E493E00E944002809152026C2F0E9407
:10069000EC0B692F20E1829F600D112486E493E02A
:1006A0000E944002809154026C2F0E94EC0B692F33
:1006B00020E1829F600D112486E493E00E944002B5
:1006C000809155026C2F0E94EC0B692F20E1829FD4
:1006D000600D112486E493E00E944002809156024E
:1006E0006C2F0E94EC0B692F20E1829F600D11247A
:1006F00086E493E00E944002809157026C2F0E9492
:10070000EC0B692F20E1829F600D112486E493E0B9
:100710000E944002809150026C2F0E94EC0B692FC6
:1007200020E1829F600D112486E493E00E94400244
:10073000CF910C94A5061F93CF93DF9381E0809314
:10074000850288E68093A702109286021092A80282
:1007500060E086E493E00E9440020E94A50680913A
:1007600084028111FCCF81E0809384028093830214
:100770009FEF909382021092810296E09093800204
:1007800080935F0280915F02806D80935F02809111
:100790005E02813061F410925E0280915F0280936C
:1007A000BB008091BC0083FDF8CF85EC01C085EED5
:1007B0008093BC00809184028130E1F380918102BA
:1007C000873018F48091810201C087E0A0E6B2E092
:1007D0002EE232E0F9019E2F921B981718F49D919A
:1007E0009193F9CF10924F0280934E0286E493E0EA
:1007F0000E94BE01C82FC695C695C695CE709C2F87
:10080000990F990FC90F8F70C80FC093510286E4DA
:1008100093E00E94BE01982F92959F708F70D82F01
:100820002AE0929FD00D1124D093520286E493E0E7
:100830000E94BE01182F1695169516951670912FC9
:10084000990F990F190F8F70180F1093540286E4A7
:1008500093E00E94BE01982F92959F708F702AE0BE
:10086000929F800D11248093550286E493E00E94AC
:10087000BE01982F92959F708F702AE0929F800DF5
:1008800011248093560286E493E00E94BE01982FC3
:1008900092959F708F702AE0929F800D1124809313
:1008A000570286E493E00E94BE01982F92959F70B4
:1008B0008F702AE0929F800D1124809350023AE0BD
:1008C000812F632F0E94EC0B8093070126EF829FFC
:1008D000100D1124109308018D2F0E94EC0B8093B2
:1008E0000601829FD00D1124D09305018C2F0E9408
:1008F000EC0B809304019C2F829F900D1124909308
:100900005802C170C0930301DF91CF911F910895E8
:100910001F920F920FB60F9211242F933F934F9374
:100920005F936F937F938F939F93AF93BF93EF9357
:10093000FF9389EA92E00E941A01FF91EF91BF9123
:10094000AF919F918F917F916F915F914F913F9167
:100950002F910F900FBE0F901F9018951F920F921E
:100960000FB60F9211242F938F939F93EF93FF93C2
:10097000E091B902F091BA028081E091BF02F0915A
:10098000C00282FD12C090818091C2028F5F8F737E
:100990002091C302821751F0E091C202F0E0E755C6
:1009A000FD4F958F8093C20201C08081FF91EF912E
:1009B0009F918F912F910F900FBE0F901F901895C0
:1009C0001F920F920FB60F9211242F933F934F93C4
:1009D0005F936F937F938F939F93AF93BF93EF93A7
:1009E000FF938091B900887F803609F49CC068F538
:1009F000883209F45BC090F4803109F454C038F4B3
:100A0000882309F4F6C0883009F44DC0F6C0883157
:100A100009F44CC0803209F45DC0EFC0803409F4A1
:100A200068C048F4803309F455C0883309F0E5C044
:100A300080938202D8C0803509F44FC0883509F40C
:100A40005DC0883409F0D9C0D6C0883909F4C7C060
:100A5000A8F4883709F467C038F4883609F463C00D
:100A6000803709F460C0C9C0883809F4B8C080393B
:100A700009F45FC0803809F0C0C05BC0803B09F456
:100A800086C038F4803A09F466C0883A09F47FC019
:100A9000B4C0803C09F4A7C0883C09F4A4C0883BDA
:100AA00009F48AC0AAC080915F0210C090918102AF
:100AB00080918002981770F5E091810281E08E0F9D
:100AC00080938102F0E0E05AFD4F80818093BB006B
:100AD00085EC86C0809382028EC0E091810281E025
:100AE0008E0F809381028091BB00F0E0E05AFD4FB1
:100AF000808390918102809180026EC0E09181029A
:100B000081E08E0F809381028091BB00F0E0E05A7B
:100B1000FD4F80838091830281116DC081E08093BD
:100B20005E0284EA61C083E08093840210922D0209
:100B3000CFCF80912D02803208F051C0E0912D027C
:100B400081E08E0F80932D028091BB00F0E0E35F87
:100B5000FD4F8083BDCF85EC8093BC001092840252
:100B600080912D02803230F4E0912D02F0E0E35FBD
:100B7000FD4F108260912D0270E0E0910B02F09128
:100B80000C028DE092E0099510922D0236C084E0AF
:100B90008093840210920A0210920902E0910702E7
:100BA000F0910802099580910902811105C081E048
:100BB000809309021092E701E0910A0281E08E0F12
:100BC00080930A02F0E0E951FE4F80818093BB00E0
:100BD00090910A0280910902981708F479CF85E86C
:100BE0008093BC000AC085EC8093BC001092840204
:100BF00004C0109282020E94DE01FF91EF91BF912A
:100C0000AF919F918F917F916F915F914F913F91A4
:100C10002F910F900FBE0F901F9018951F920F925B
:100C20000FB60F9211242F933F934F935F936F93BF
:100C30007F938F939F93AF93BF93EF93FF93809195
:100C4000DD019091DE0101969093DE018093DD013C
:100C5000049799F58091DC018F5F873009F481E07A
:100C60008093DC018091DC018330B1F040F481306D
:100C700079F08230F1F46091040182E018C085308F
:100C800099F070F08630A9F46091070186E00FC0FA
:100C90006091580281E00BC06091050183E007C0BC
:100CA0006091060184E003C06091080185E00E9424
:100CB000D0021092DE011092DD01FF91EF91BF9101
:100CC000AF919F918F917F916F915F914F913F91E4
:100CD0002F910F900FBE0F901F9018953FB7F8946B
:100CE0008091570390915803A0915903B0915A03F2
:100CF00026B5A89B05C02F3F19F00196A11DB11D77
:100D00003FBFBA2FA92F982F8827820F911DA11DB1
:100D1000B11DBC01CD0142E0660F771F881F991FEE
:100D20004A95D1F70895009769F0FC0101900020E1
:100D3000E9F73197AF01481B590BBC0189EA92E0F2
:100D40000C94A80080E090E008952091A802909172
:100D5000A702213208F04AC0809184028111FCCFA1
:100D600032E03093840231E0309383023FEF3093DE
:100D700082021092810220938002A7E8B2E040E64E
:100D800052E0FA013E2F341B321718F43D91319393
:100D9000F9CF10925F0220915F02990F922B9093EE
:100DA0005F0290915E02913061F410925E02909128
:100DB0005F029093BB009091BC0093FDF8CF95EC3F
:100DC00001C095EE9093BC00909184029230E1F3C3
:100DD000909182029F3F79F080918202803241F0AF
:100DE00080918202803331F084E005C081E003C04D
:100DF00082E001C083E0109286021092A802109255
:100E000085020895CF93DF930E949306EC0189ED4C
:100E100091E00E9493068C0F9D1FDF91CF91089562
:100E20000C9493068F929F92AF92BF920F931F9351
:100E3000CF93DF93CDB7DEB7A1970FB6F894DEBF9F
:100E40000FBECDBF19A2423008F44AE08E010F5DFB
:100E50001F4F842E912CA12CB12CA50194010E942E
:100E6000F80BE62FB901CA0101501109EA3014F458
:100E7000E05D01C0E95CD801EC93232B242B252BEA
:100E800061F7C8010E949306A1960FB6F894DEBFE1
:100E90000FBECDBFDF91CF911F910F91BF90AF904B
:100EA0009F908F900895CF93DF93682F70E080E03C
:100EB00090E04AE00E941207EC0189ED91E00E9467
:100EC00093068C0F9D1FDF91CF9108950F931F9371
:100ED000CF93DF938C01C0E0D0E0F801EC0FFD1F51
:100EE0006491662371F0E091A902F091AA02019049
:100EF000F081E02D89EA92E00995892B11F0219685
:100F0000ECCF89ED91E00E9493068C0F9D1FDF913D
:100F1000CF911F910F91089590E0FC01EB51FF4F8D
:100F20002491FC01EF52FF4F8491882399F090E0C7
:100F3000880F991FFC01E953FF4FA591B491FC0163
:100F4000E354FF4F859194918FB7F894EC91E22B85
:100F5000EC938FBF089590E0FC01E755FF4F34916B
:100F6000FC01EB51FF4F2491FC01EF52FF4FE49144
:100F7000EE2309F43BC0332339F1333091F038F4D8
:100F80003130A9F0323001F584B58F7D12C0373091
:100F900091F03830A1F03430B9F4809180008F7D29
:100FA00003C0809180008F77809380000DC084B54E
:100FB0008F7784BD09C08091B0008F7703C0809186
:100FC000B0008F7D8093B000F0E0EE0FFF1FE35480
:100FD000FF4FA591B4918FB7F894EC91611103C0C4
:100FE00020952E2301C02E2B2C938FBF08958F9216
:100FF0009F92AF92BF92CF92DF92EF92FF926B01DE
:101000007C010E946E064B015C01C114D104E10415
:10101000F104F1F00E946E06DC01CB0188199909F8
:10102000AA09BB09883E9340A105B10570F321E0F0
:10103000C21AD108E108F10888EE880E83E0981EF4
:10104000A11CB11CC114D104E104F10419F7DDCFD6
:10105000FF90EF90DF90CF90BF90AF909F908F90D8
:1010600008952FB7F89460915303709154038091C1
:101070005503909156032FBF08951F920F920FB6FC
:101080000F9211242F933F938F939F93AF93BF930E
:101090008091530390915403A0915503B09156034E
:1010A0003091520323E0230F2D3720F40196A11D28
:1010B000B11D05C026E8230F0296A11DB11D209386
:1010C00052038093530390935403A0935503B0931A
:1010D00056038091570390915803A0915903B09102
:1010E0005A030196A11DB11D809357039093580395
:1010F000A0935903B0935A03BF91AF919F918F91E1
:101100003F912F910F900FBE0F901F9018957894DC
:1011100084B5826084BD84B5816084BD85B58260FC
:1011200085BD85B5816085BD80916E0081608093AD
:101130006E00109281008091810082608093810016
:101140008091810081608093810080918000816026
:10115000809380008091B10084608093B100809181
:10116000B00081608093B00080917A0084608093A9
:101170007A0080917A00826080937A0080917A0070
:10118000816080937A0080917A00806880937A00F1
:101190001092C10083E00E948C0784E00E948C07BB
:1011A00085E00E948C07C09103016C2F83E00E94B0
:1011B000AB076C2F84E00E94AB076C2F85E00E9488
:1011C000AB0786E00E948C0787E00E948C0788E0CE
:1011D0000E948C0789E00E948C078AE00E948C079D
:1011E0008BE00E948C078CE00E948C078DE00E94AF
:1011F0008C07E091B902F091BA0282E08083E0911D
:10120000B502F091B6021082E091B702F091B802F7
:101210008FEC80831092C102E091BD02F091BE027A
:1012200086E08083E091BB02F091BC028081806106
:101230008083E091BB02F091BC0280818860808352
:10124000E091BB02F091BC02808180688083E091D4
:10125000BB02F091BC0280818F7D80838EE990E09B
:101260000E94660710924F0210924E021092860260
:101270001092A8021092840281E08093830210925F
:101280005E0261E082E10E94AB0761E083E10E94BF
:10129000AB078091B9008E7F8093B9008091B9002F
:1012A0008D7F8093B90088E48093B80085E48093B3
:1012B000BC00F8941092B0001092B1001092B200ED
:1012C0008AEF8093B3008091B00082608093B00079
:1012D0008091B10084608093B10080917000826041
:1012E00080937000789468EE73E080E090E00E9454
:1012F000F707C0E0C0935802C0930401C0930501F2
:10130000C0930601C0930801C093070164EF71E028
:1013100080E090E00E94F707CF5FCA3059F786E877
:1013200090E00E94660768E873E180E090E00E9428
:10133000F70789EA92E00E940401892B09F4DCC0D6
:1013400086E790E00E946607E0E0F1E0019000206F
:10135000E9F731978F010050114019F480E090E0D7
:1013600080C0C0E0D0E00E9431086093B102709369
:10137000B2028093B3029093B402E091A902F0917B
:10138000AA020284F385E02D89EA92E0099597FD8F
:101390000BC0FE01E050FF4F2081022E000C330BEA
:1013A0008217930709F556C00E943108C090B10218
:1013B000D090B202E090B302F090B402DC01CB0115
:1013C0008C199D09AE09BF09C090AD02D090AE0244
:1013D000E090AF02F090B0028C159D05AE05BF0500
:1013E00060F28FEF9FEF3DC0209721F420E030E0C6
:1013F000E901B9CF9E01A90141505109FA01E0501C
:10140000FF4F6081062E000C770B86179707F1F4CB
:101410004115510569F3A0E0B1E060E070E07E01A4
:10142000E41AF50ADD90FB01EE0DFF1DE050FF4FC1
:10143000E081DE1629F064177507D1F29A01DBCF3F
:101440006F5F7F4F6417750768F3F5CF411551053E
:10145000A9F7CCCF9E012F5F3F4F2017310741F6F0
:101460007DCF892B09F048C085E391E00E941007E9
:101470000E948402809350020E9453078BE391E004
:101480000E9410070E948402809357020E94530713
:1014900082E491E00E9410070E9484028093560229
:1014A0000E94530787E491E00E9410070E94840283
:1014B000809355020E9453078FE591E00E94100728
:1014C0000E948402809354020E94530785E691E0B3
:1014D0000E9410070E948402809352020E945307C8
:1014E0008DE691E00E9410070E94840280935102D1
:1014F0000E9453070E9425030E949B03809157027C
:10150000833029F490915602993150F006C08A3008
:1015100039F490915602983118F491E09093530267
:101520008450863018F481E08093530268EE73E0B3
:1015300080E090E00E94F70789EA92E00E940401AF
:10154000181619067CF5109209010E943108609363
:101550005A0270935B0280935C0290935D0289EA69
:1015600092E00E94E2008093590290ED980F9A3029
:1015700010F08E3209F79091080190930701909135
:1015800006019093080190910501909306019091B6
:101590000401909305019091580290930401809367
:1015A0005802CACF80910901811116C00E943108EA
:1015B00000915A0210915B0220915C0230915D0211
:1015C000DC01CB01801B910BA20BB30B893893413B
:1015D000A105B10508F0BFC080910901882309F475
:1015E00088C00E949B036091540270E080E090E00C
:1015F0004AE00E9412078DE591E00E941007809159
:1016000052028A3020F485E791E00E941007609131
:10161000520270E080E090E04AE00E9412078DE5FF
:1016200091E00E941007809151028A3020F485E7F2
:1016300091E00E9410076091510270E080E090E01C
:101640004AE00E9412078EE991E00E941007609123
:10165000560270E080E090E04AE00E94120787E7BF
:1016600091E00E9410076091570270E080E090E0E6
:101670004AE00E94120787E791E00E9410076091FC
:10168000500270E080E090E04AE00E9412078091F2
:101690005302882319F089E791E002C085E891E0C0
:1016A0000E94100781E991E00E941007E091550225
:1016B0008E2F90E0FC013197E730F105D0F4EC5C1F
:1016C000FF4F0C941A0C80EA91E011C087EA91E078
:1016D0000EC08EEA91E00BC086EB91E008C080EC72
:1016E00091E005C089EC91E002C080ED91E00E949C
:1016F000020780915702833099F4909156029931F4
:1017000038F190915502913019F520915402223010
:10171000F9F42091530221111BC09093530214C07D
:101720008A30B1F480915602893190F0809155024F
:10173000813071F490915402923051F4909153029F
:10174000992331F010925302809354020E94250392
:101750000E94A401EBCE61E084E00E94AB0781E02F
:101760008093090139CFE9EAF2E01382128288EE10
:1017700093E0A0E0B0E084839583A683B78325E15E
:1017800031E03183208325EC30E03587248724EC59
:1017900030E03787268720EC30E0318B208B21EC3E
:1017A00030E0338B228B22EC30E0358B248B26EC1F
:1017B00030E0378B268B118E128E138E148EE6E45A
:1017C000F3E01382128284839583A683B78387E232
:1017D00091E0918380830895991B79E004C0991F5B
:1017E000961708F0961B881F7A95C9F7809508957B
:1017F000A1E21A2EAA1BBB1BFD010DC0AA1FBB1F15
:10180000EE1FFF1FA217B307E407F50720F0A21B86
:10181000B30BE40BF50B661F771F881F991F1A94F3
:1018200069F760957095809590959B01AC01BD011D
:10183000CF010895EE0FFF1F0590F491E02D09945C
:0E18400081E090E0F8940C94250CF894FFCF12
:10184E00475300010102030504010406080A1012A1
:10185E0000000000003B01A800D30082010401E259
:10186E0000F6000000000040021002DB01AE01D2C3
:10187E0001BE01AF01596561723A004D6F6E746819
:10188E003A004461793A00446179206F66207765A9
:10189E00656B2028313D73756E646179293A004875
:1018AE006F75723A004D696E7574653A00536563D3
:1018BE006F6E643A0030002F002053756D6D6572A7
:1018CE0074696D65002057696E74657274696D6513
:1018DE000020446179206F66207765656B3A2000A1
:1018EE0053756E646179004D6F6E64617900547545
:1018FE006573646179005765646E65736461790020
:10190E005468757273646179004672696461790016
:0C191E005361747572646179000D0A0059
:00000001FF
